:10080000120899C2A0C2A4E50AB40F14D2A0E50A46
:10081000C39414500BB2A27FF47E0112087F80EEC5
:10082000E50AB41408D2A2C2A1D2A4C2A3E50AB4B4
:100830002316D2A3E50AC39428500BB2A57FF47EF9
:100840000112087F80EED2A5E50AB428BAC2A0D270
:08085000A1C2A4E4F50A80AF87
:03000B0002085890
:04085800C0E0C0D06C
:10085C00758A66758CFC0509E50970020508B4E813
:0E086C000DE508B40308050A750800750900BB
:05087A00D0D0D0E032F7
:10087F00E4FDFCC3ED9FEC9E500F79027BEFDBFE96
:09088F00D9FC0DBD00010C80EA4A
:01089800223D
:0408BC007FF7DFFEE5
:0108C0002215
:100899005389F0438901758A66758CFCC28DD28CA7
:0708A900D2A9D2AFC2B922AF
:030000000208B043
:0C08B000787FE4F6D8FD75810B0208008B
:00000001FF
