:10080000E4F50820B1377F147E0012087730B1FD7F
:100810007F147E00120877AF087401A807088002D1
:10082000C333D8FCF4F5A07FF47E01120877E50805
:10083000B408037508FF30B004050880DA20B0C39F
:100840007F147E0012087730B0FD7F147E001208FE
:1008500077AF087401A807088002C333D8FCF4F509
:10086000A07FF47E01120877E508B4FF037508083D
:0708700030B190150880DA99
:10087700E4FDFCC3ED9FEC9E500F79027BEFDBFE9E
:09088700D9FC0DBD00010C80EA52
:010890002245
:04089D007FF7DFFE04
:0108A1002234
:0300000002089162
:0C089100787FE4F6D8FD758108020800AD
:00000001FF
