:080C5B0054494D453A323000C6
:10080000120C18120C637BFF7A0C795B7D017F015F
:10081000120B8AE4FD7F80120A107D517F82120A3A
:10082000107D137F84120A107D087F86120A107DC6
:10083000017F88120A107D237F8C120A107D077FAA
:100840008A120A107F81120A618F127F83120A6155
:100850008F157F85120A618F147F87120A618F13AB
:100860007F89120A618F167F8D120A618F117F8B2B
:10087000120A618F17E512C4540F75F00AA4FFE540
:1008800012540F7C002FFBEC35F0FA750C027D0D35
:100890007F02120BCB7B3A7D0C7F02120C51E515C7
:1008A000C4540F75F00AA4FFE515540F7C002FFB0C
:1008B000EC35F0FA750C027D0A7F02120BCB7B3A05
:1008C0007D097F02120C51E514C4540F75F00AA47F
:1008D000FFE514540F7C002FFBEC35F0FA750C0289
:1008E0007D077F02120BCBE513C4540F75F00AA4E9
:1008F000FFE513540F7C002FFBEC35F0FA750C026A
:100900007D0E7F01120BCB7B2F7D0D7F01120C51D1
:10091000E516C4540F75F00AA4FFE516540F7C00C9
:100920002FFBEC35F0FA750C027D0B7F01120BCB1F
:100930007B2F7D0A7F01120C51E511C4540F75F015
:100940000AA4FFE511540F7C002FFBEC35F0FA757B
:100950000C027D087F01120BCBE517C4540F75F014
:100960000AA4FFE517540F7C002FFBEC35F0FA7555
:0C0970000C027D017F02120BCB02084438
:060C2C00C2A58F80D2A7D3
:080C32007F027EEFDEFEDFFC15
:010C3A002297
:0A0C4700C2A6120C2CC2A7020C3248
:100BAD00CFCDCFCECCCE1209BB7C007D0A1209BBB6
:040BBD00ED2430FFF4
:0A0BC100D2A6120C2CC2A7020C32BF
:100C0200AE07BE0104ED148006BE0209ED243F4486
:060C120080FF120C4722D6
:100C18007F38120C477F0C120C477F06120C477F57
:040C280001020C4772
:0A0C5100AC03120C02AF04020BC149
:060B8A008B088A09890AAC
:100B9000120C02E4FDAB08AA09A90A8D8275830034
:0C0BA00012097CFF6006120BC10D80E9F9
:010BAC002226
:0C0B57007F0AEA24FFFDE434FFFC7E006E
:080B63008E0D8F0E8C0F8D101A
:100B6B007F017E00E4FBEBC39510E50F6480F87406
:0E0B7B008098500AAC0DAD0E1209A90B80E84F
:010B89002249
:040BCB008A0A8B0BFC
:100BCF00120C02AA0CEAD39400400D120B57AC0A78
:080BDF00AD0B120BAD1A80ED05
:010BE70022EB
:100AAC00120C02C3EA64809480400B7F2B120BC1A2
:100ABC008A1D8B1E800E7F2D120BC1C3E49BF51E6D
:100ACC00E49AF51DAA1CEAD39400400D120B57AC06
:090ADC001DAD1E120BAD1A80EDD8
:010AE50022EE
:040AE6008A218B22B4
:100AEA00120C02AA23EAD3940040297F10120B5950
:100AFA00AC21AD22CFCDCFCECCCE1209BBEF540F55
:100B0A00FEC3940AEE5004243080022437FF120BED
:040B1A00C11A80D1AB
:010B1E0022B4
:040B1F008A268B2770
:100B2300120C02AA28EAD394004028EA24FFFDE429
:100B330034FFFC7F027E00120B63AC26AD27CFCDC2
:100B4300CFCECCCE1209BBEF54012430FF120BC120
:030B53001A80D233
:010B5600227C
:050C6300C2B5C2B6227B
:020A1000A90734
:100A1200E4FBD2B574017E00A803088005C333CE7F
:100A220033CED8F9FFE9F582EF558224FF92B4D292
:100A3200B6C2B60BBB08DDE4FB74017E00A8030856
:100A42008005C333CE33CED8F9FFEDF582EF558260
:0E0A520024FF92B4D2B6C2B60BBB08DDC2B50B
:010A60002273
:020A6100A907E3
:100A6300E4FDFBD2B574017E00A805088005C333FD
:100A7300CE33CED8F9FFE9F582EF558224FF92B445
:100A8300C2B6D2B60DBD08DDE4FDD2B6C2B630B4EF
:100A93000D7401A805088002C333D8FC42030DBDC1
:080AA30008E8C2B5C2B4AF03BC
:010AAB002228
:100BE800E4FDFCC3ED9FEC9E500F79027BEFDBFE2A
:090BF800D9FC0DBD00010C80EADE
:010C010022D0
:040C68007FF7DFFE35
:010C6C002265
:03000000020C3BB4
:0C0C3B00787FE4F6D8FD758128020800DF
:10097C00BB010CE58229F582E5833AF583E0225030
:10098C0006E92582F8E622BBFE06E92582F8E2227A
:0D099C00E58229F582E5833AF583E4932294
:1009A900EF8DF0A4A8F0CF8CF0A428CE8DF0A42E62
:0209B900FE221C
:1009BB00BC000BBE0029EF8DF084FFADF022E4CC20
:1009CB00F875F008EF2FFFEE33FEEC33FCEE9DECE9
:1009DB00984005FCEE9DFE0FD5F0E9E4CEFD22ED2F
:1009EB00F8F5F0EE8420D21CFEADF075F008EF2F79
:1009FB00FFED33FD4007985006D5F0F222C398FD6A
:050A0B000FD5F0EA2206
:00000001FF
