:0E0C920050494E3A005355434300455252001C
:10098900E4F508F509F50AF50BF50CF50D120C6FF0
:100999007BFF7A0C79927D017F01120BE11208002D
:1009A9007508008F09E5094508603ED3E509940AF1
:1009B900E50894005033C3E50D9404E50C94005008
:1009C90028AE0AAF0B7C007D0A120A9C8E0A8F0B97
:1009D900AE08AF09120AAEED250BF50BEC350AF599
:1009E9000A050DE50D7002050CE509640B45087053
:1009F90036E50BB4D21BE50AB404167BFF7A0C79F1
:100A0900977D017F02120BE17FB87E0B120C3F80AC
:100A1900517BFF7A0C799C7D017F02120BE1E4F591
:100A29000AF50BF50CF50DE509640C45087022D3A0
:100A3900E50D9400E50C94004017AE0AAF0B7C005D
:100A49007D0A120AAE8E0A8F0BE50D150D7002157F
:100A59000C751204AB0BAA0A7D057F01120C220248
:050A690009A6E4FEFFF8
:010A6E002265
:100C3F00E4FDFCC3ED9FEC9E500F79027BEFDBFED2
:090C4F00D9FC0DBD00010C80EA86
:010C58002279
:040CC0007FF7DFFEDD
:010CC400220D
:060C8300C2A58F80D2A77C
:080C89007F027EEFDEFEDFFCBE
:010C91002240
:0A0CAC00C2A6120C83C2A7020C8935
:100C0400CFCDCFCECCCE120AAE7C007D0A120AAE76
:040C1400ED2430FF9C
:0A0C1800D2A6120C83C2A7020C89B9
:100C5900AE07BE0104ED148006BE0209ED243F442F
:060C690080FF120CAC221A
:100C6F007F38120CAC7F0C120CAC7F06120CAC7FD1
:040C7F0001020CACB6
:0A0CB600AC03120C59AF04020C1835
:060BE1008B0E8A0F891043
:100BE700120C59E4FDAB0EAA0FA9108D8275830074
:0C0BF700120A6FFF6006120C180D80E956
:010C030022CE
:0C0BAE007F0AEA24FFFDE434FFFC7E0017
:080BBA008E138F148C158D16AB
:100BC2007F017E00E4FBEBC39516E5156480F874A3
:0E0BD2008098500AAC13AD14120A9C0B80E8F8
:010BE00022F2
:040C22008A108B1198
:100C2600120C59AA12EAD39400400D120BAEAC1066
:080C3600AD11120C041A80ED4F
:010C3E002293
:100B0300120C59C3EA64809480400B7F2B120C189B
:100B13008A1C8B1D800E7F2D120C18C3E49BF51DC0
:100B2300E49AF51CAA1BEAD39400400D120BAEAC59
:090B33001CAD1D120C041A80ED2A
:010B3C002296
:040B3D008A208B215E
:100B4100120C59AA22EAD3940040297F10120BB04B
:100B5100AC20AD21CFCDCFCECCCE120AAEEF540F0B
:100B6100FEC3940AEE5004243080022437FF120C95
:040B7100181A80D1FD
:010B7500225D
:040B76008A258B261B
:100B7A00120C59AA27EAD394004028EA24FFFDE47C
:100B8A0034FFFC7F027E00120BBAAC25AD26CFCD16
:100B9A00CFCECCCE120AAEEF54012430FF120C187D
:030BAA001A80D2DC
:010BAD002225
:10080000E4F50E7590FFC2932097137F14FE120C2F
:100810003F3097FD7F147E00120C3F750E0120962D
:10082000147F147E00120C3F3096FD7F147E001260
:100830000C3F750E052095147F147E00120C3F307E
:1008400095FD7F147E00120C3F750E092094147FD5
:10085000147E00120C3F3094FD7F147E00120C3F7A
:10086000750E0D7590FFC2922097147F147E0012B2
:100870000C3F3097FD7F147E00120C3F750E022056
:1008800096147F147E00120C3F3096FD7F147E007C
:10089000120C3F750E062095147F147E00120C3F3B
:1008A0003095FD7F147E00120C3F750E0A209414C3
:1008B0007F147E00120C3F3094FD7F147E00120CDA
:1008C0003F750E0E7590FFC2912097147F147E0025
:1008D000120C3F3097FD7F147E00120C3F750E0303
:1008E0002096147F147E00120C3F3096FD7F147EFC
:1008F00000120C3F750E072095147F147E00120C19
:100900003F3095FD7F147E00120C3F750E0B209436
:10091000147F147E00120C3F3094FD7F147E001271
:100920000C3F750E0F7590FFC2902097147F147EB8
:1009300000120C3F3097FD7F147E00120C3F750EA5
:10094000042096147F147E00120C3F3096FD7F1415
:100950007E00120C3F750E082095147F147E001245
:100960000C3F3095FD7F147E00120C3F750E0C205D
:1009700094147F147E00120C3F3094FD7F147E008F
:08098000120C3F750E10AF0EC2
:01098800224C
:03000000020CA04F
:0C0CA000787FE4F6D8FD758127020989F1
:100A6F00BB010CE58229F582E5833AF583E022503C
:100A7F0006E92582F8E622BBFE06E92582F8E22286
:0D0A8F00E58229F582E5833AF583E49322A0
:100A9C00EF8DF0A4A8F0CF8CF0A428CE8DF0A42E6E
:020AAC00FE2228
:100AAE00BC000BBE0029EF8DF084FFADF022E4CC2C
:100ABE00F875F008EF2FFFEE33FEEC33FCEE9DECF5
:100ACE00984005FCEE9DFE0FD5F0E9E4CEFD22ED3B
:100ADE00F8F5F0EE8420D21CFEADF075F008EF2F85
:100AEE00FFED33FD4007985006D5F0F222C398FD76
:050AFE000FD5F0EA2213
:00000001FF
