:10086200E4FDFCC3ED9FEC9E500F79027BEFDBFEB3
:09087200D9FC0DBD00010C80EA67
:01087B00225A
:0408A7007FF7DFFEFA
:0108AB00222A
:0508AC0012084780FE68
:03002300020800D0
:10080000C0E0C0F0C083C082C0D075D000C000C0BE
:1008100001C002C003C004C005C006C00730980C68
:10082000E599F4F5A0AF9912089FC298D007D006B9
:10083000D005D004D003D002D001D000D0D0D082D7
:07084000D083D0F0D0E032BC
:10087C005389F0438901758A66758CFCC28DD28CC4
:07088C00D2A9D2AFC2B922CC
:1008470075985053877F53890F438920758BFA75A5
:0B0857008DFAC2ABD28ED2AFD2AC2221
:08089F008F993099FDC29922E6
:0300000002089360
:0C089300787FE4F6D8FD7581070208AC00
:00000001FF
