:100B3C005772697465204F4B002020202020202004
:100B4C00200052656164204F4B0020202020202083
:020B5C00200077
:10080000120C09750C05E4FBFA7D017F01120BBC8B
:1008100012097E8F24E524B401150523E523700217
:100820000522750C05FBAA227D017F01120BBCE598
:1008300024B40216E523152370021522750C05ABAE
:1008400023AA227D017F01120BBCE5246403704CB6
:10085000E522FD7F01120B5E7F057E00120BD9ADF4
:10086000237F02120B5E7F057E00120BD9750C05EB
:10087000AB23AA227D017F01120BBC7BFF7A0B798F
:100880003C7D017F02120B197FE87E03120BD97B9E
:10089000FF7A0B79457D017F02120B19E524640470
:1008A00060030208107F01120ABDEFFEEE42227FB4
:1008B00002120ABDEF4223E4750C05AB23AA227D88
:1008C000017F01120BBC7BFF7A0B794E7D017F0209
:1008D000120B197FE87E03120BD97BFF7A0B795636
:0A08E0007D017F02120B19020810BF
:100BD900E4FDFCC3ED9FEC9E500F79027BEFDBFE39
:090BE900D9FC0DBD00010C80EAED
:010BF20022E0
:040C72007FF7DFFE2B
:010C7600225B
:060C1D00C2A58F80D2A7E2
:080C23007F027EEFDEFEDFFC24
:010C2B0022A6
:0A0C4500C2A6120C1DC2A7020C2368
:100B8000CFCDCFCECCCE1209297C007D0A12092907
:040B9000ED2430FF21
:0A0B9400D2A6120C1DC2A7020C230A
:100BF300AE07BE0104ED148006BE0209ED243F4496
:060C030080FF120C4522E7
:100C09007F38120C457F0C120C457F06120C457F6C
:040C190001020C4583
:0A0C4F00AC03120BF3AF04020B9488
:060B19008B088A09890A1D
:100B1F00120BF3E4FDAB08AA09A90A8D82758300B5
:0C0B2F001208EAFF6006120B940D80E92A
:010B3B002297
:0C0A8A007F0AEA24FFFDE434FFFC7E003C
:080A96008E0D8F0E8C0F8D10E8
:100A9E007F017E00E4FBEBC39510E50F6480F874D4
:0E0AAE008098500AAC0DAD0E1209170B80E8AF
:010ABC002217
:040BBC008A0A8B0B0B
:100BC000120BF3AA0CEAD39400400D120A8AAC0A65
:080BD000AD0B120B801A80ED41
:010BD80022FA
:1009DF00120BF3C3EA64809480400B7F2B120B94AD
:1009EF008A168B17800E7F2D120B94C3E49BF5177D
:1009FF00E49AF516AA15EAD39400400D120A8AACB0
:090A0F0016AD17120B801A80EDE0
:010A180022BB
:040A19008A1A8B1B8F
:100A1D00120BF3AA1CEAD3940040297F10120A8C02
:100A2D00AC1AAD1BCFCDCFCECCCE120929EF540FC2
:100A3D00FEC3940AEE5004243080022437FF120BBB
:040A4D00941A80D1A6
:010A51002282
:040A52008A1F8B204C
:100A5600120BF3AA21EAD394004028EA24FFFDE40E
:100A660034FFFC7F027E00120A96AC1FAD20CFCD6C
:100A7600CFCECCCE120929EF54012430FF120B94AD
:030A86001A80D201
:010A8900224A
:10097E00E4F50820B1137F14FE120BD930B1FD7FC0
:10098E00147E00120BD975080120B0147F147E005E
:10099E00120BD930B0FD7F147E00120BD9750802F0
:1009AE0020B2147F147E00120BD930B2FD7F147E5C
:1009BE0000120BD975080320B3147F147E00120B9E
:1009CE00D930B3FD7F147E00120BD9750804AF0821
:0109DE0022F6
:100B5E008F088D09120C597FA0120AF0120C2CAFBF
:100B6E0008120AF0120C2CAF09120AF0120C2C0209
:020B7E000C6BFE
:020ABD008F08A0
:100ABF00E4F509120C597FA0120AF0120C2CAF08A2
:100ACF00120AF0120C2C120C597FA1120AF0120C00
:100ADF002C120B9E8F097F01120C62120C6BAF0947
:010AEF0022E4
:090C5900D2A1D2A0C2A0C2A122C6
:070C6B00C2A0D2A1D2A02219
:020AF000AD0750
:100AF200E4FB74807E00A803088006CEA2E713CE32
:100B020013D8F8FFEDF582EF558224FF92A0D2A10F
:060B1200C2A10BBB08DCD0
:010B180022BA
:100B9E00E4FFFED2A0D2A130A00D7480A80608807A
:0D0BAE0002C313D8FC4207C2A10EBE08E826
:010BBB002217
:090C6200EF1392A0D2A1C2A1225D
:0C0C2C00E4FFD2A0D2A130A0010FC2A1B1
:010C38002299
:03000000020C39B6
:0C0C3900787FE4F6D8FD758124020800E5
:1008EA00BB010CE58229F582E5833AF583E02250C3
:1008FA0006E92582F8E622BBFE06E92582F8E2220D
:0D090A00E58229F582E5833AF583E4932226
:10091700EF8DF0A4A8F0CF8CF0A428CE8DF0A42EF4
:02092700FE22AE
:10092900BC000BBE0029EF8DF084FFADF022E4CCB2
:10093900F875F008EF2FFFEE33FEEC33FCEE9DEC7B
:10094900984005FCEE9DFE0FD5F0E9E4CEFD22EDC1
:10095900F8F5F0EE8420D21CFEADF075F008EF2F0B
:10096900FFED33FD4007985006D5F0F222C398FDFC
:050979000FD5F0EA2299
:00000001FF
