:10096300E4FDFCC3ED9FEC9E500F79027BEFDBFEB1
:09097300D9FC0DBD00010C80EA65
:01097C002258
:040994007FF7DFFE0C
:01099800223C
:05099900C2B6C2B52248
:0208ED00AD0755
:1008EF00E4FB74807E00A803088006CEA2E713CE37
:1008FF0013D8F8FFEDF582EF558224FF92B4D2B6EC
:0A090F00C2B60BBB08DCD2B5C2B5BE
:0109190022BB
:10093F00AE05AC07AF061208EDAF047480A8070828
:10094F008002C313D8FCF4F5807F017E0012096387
:04095F007580FF227E
:10097D005389F0438901758A66758CFCC28DD28CC2
:07098D00D2A9D2AFC2B922CA
:1008BD0030407F887F40340000007FA87F50340097
:1008CD0030407FA87F60000010205E8A7F201000DE
:1008DD0010297E887E21300010297FC81E693900BD
:03099E00010A004B
:10091A00E4F50B12099912097DE4F50BE50B250A9A
:10092A009008BD93FDAF0B12093F050BE50BC3946D
:05093A000840E980E423
:03000B0002088C5C
:04088C00C0E0C0D038
:10089000758A66758CFC0509E50970020508B4F4D3
:1008A00017E508B401127408250AF50AB42803757F
:0808B0000A007508007509003B
:0508B800D0D0D0E032B9
:03000000020800F3
:0C080000787FE4F6D8FD75810B020847F4
:10080C0002091AE493A3F8E493A34003F68001F2DF
:10081C0008DFF48029E493A3F85407240CC8C333ED
:10082C00C4540F4420C8834004F456800146F6DFBC
:10083C00E4800B010204081020408090099EE47EA5
:10084C00019360BCA3FF543F30E509541FFEE493B1
:10085C00A360010ECF54C025E060A840B8E493A378
:10086C00FAE493A3F8E493A3C8C582C8CAC583CAA3
:10087C00F0A3C8C582C8CAC583CADFE9DEE780BE5B
:0109A1000055
:00000001FF
