:1008B40075A0FE1208EA1208008F0AE50AB401F6D0
:0C08C400050BE50BB402EFE4F50B80EA35
:03000B0002086187
:0B086100C0E0C0D075D000C000C00790
:10086C00758A66758CFC0509E5097002050864F447
:10087C007004E50864017027F508F509E50B700DA7
:10088C00AFA07801EF08800123D8FDF5A0E50BB4EB
:0F089C00010DAFA07801EF08800103D8FDF5A092
:0908AB00D007D000D0D0D0E0321B
:1008D000E4FDFCC3ED9FEC9E500F79027BEFDBFE45
:0908E000D9FC0DBD00010C80EAF9
:0108E90022EC
:04090D007FF7DFFE93
:0109110022C3
:1008EA005389F0438901758A66758CFCC28DD28C56
:0708FA00D2A9D2AFC2B9225E
:10080000E4F50C20B1137F14FE1208D030B1FD7F47
:10081000147E001208D0750C0120B0147F147E00E5
:100820001208D030B0FD7F147E001208D0750C0283
:1008300020B2147F147E001208D030B2FD7F147EE7
:10084000001208D0750C0320B3147F147E00120828
:10085000D030B3FD7F147E001208D0750C04AF0CAD
:010860002275
:03000000020901F1
:0C090100787FE4F6D8FD75810C0208B484
:00000001FF
