:070B7B00434C4F434B3A00CD
:090B5D00011A00011B2F011C15F7
:10092000120B3A120B0D7BFF7A0B797B7D017F0155
:10093000120A957B3A7D037F02120B717B3A7D068A
:100940007F02120B71E51AFB7A00750C027D077F9E
:1009500002120AD6E51BFB7A00750C027D047F02A9
:10096000120AD6E51CFB7A00750C027D017F02128B
:040970000AD680D152
:03000B0002097473
:04097400C0E0C0D04F
:10097800758A66758CFC0519E51970020518B4E8C6
:1009880029E518B40324751800751900051AE51A25
:10099800B43C17751A00051BE51BB43C05751B0014
:0A09A800051CE51CB41803751C00C3
:0509B200D0D0D0E032BE
:100AF300E4FDFCC3ED9FEC9E500F79027BEFDBFE20
:090B0300D9FC0DBD00010C80EAD3
:010B0C0022C6
:040B82007FF7DFFE1C
:010B8600224C
:060B4E00C2A58F80D2A7B2
:080B54007F027EEFDEFEDFFCF4
:010B5C002276
:0A0B6700C2A6120B4EC2A7020B54E7
:100AB800CFCDCFCECCCE12083F7C007D0A12083FA6
:040AC800ED2430FFEA
:0A0ACC00D2A6120B4EC2A7020B5473
:100B2400AE07BE0104ED148006BE0209ED243F4465
:060B340080FF120B672296
:100B3A007F38120B677F0C120B677F06120B677FD9
:040B4A0001020B6732
:0A0B7100AC03120B24AF04020ACCFF
:060A95008B088A09890AA2
:100A9B00120B24E4FDAB08AA09A90A8D8275830009
:0C0AAB00120800FF6006120ACC0D80E962
:010AB700221C
:0C0A62007F0AEA24FFFDE434FFFC7E0064
:080A6E008E0D8F0E8C0F8D1010
:100A76007F017E00E4FBEBC39510E50F6480F874FC
:0E0A86008098500AAC0DAD0E12082D0B80E8C2
:010A9400223F
:040AD6008A0A8B0BF2
:100ADA00120B24AA0CEAD39400400D120A62AC0A43
:080AEA00AD0B120AB81A80EDF1
:010AF20022E1
:1009B700120B24C3EA64809480400B7F2B120ACC6D
:1009C7008A168B17800E7F2D120ACCC3E49BF5176E
:1009D700E49AF516AA15EAD39400400D120A62AC00
:0909E70016AD17120AB81A80EDD2
:0109F00022E4
:0409F1008A1F8B20AE
:1009F500120B24AA21EAD3940040297F10120A641D
:100A0500AC1FAD20CFCDCFCECCCE12083FEF540FCB
:100A1500FEC3940AEE5004243080022437FF120AE4
:040A2500CC1A80D196
:010A290022AA
:040A2A008A248B256A
:100A2E00120B24AA26EAD394004028EA24FFFDE400
:100A3E0034FFFC7F027E00120A6EAC24AD25CFCDB2
:100A4E00CFCECCCE12083FEF54012430FF120ACC89
:030A5E001A80D229
:010A61002272
:100B0D005389F0438901758A66758CFCC28DD28C30
:070B1D00D2A9D2AFC2B92238
:030000000208945F
:0C089400787FE4F6D8FD7581260208DBB1
:10080000BB010CE58229F582E5833AF583E02250AD
:1008100006E92582F8E622BBFE06E92582F8E222F7
:0D082000E58229F582E5833AF583E4932211
:10082D00EF8DF0A4A8F0CF8CF0A428CE8DF0A42EDF
:02083D00FE2299
:10083F00BC000BBE0029EF8DF084FFADF022E4CC9D
:10084F00F875F008EF2FFFEE33FEEC33FCEE9DEC66
:10085F00984005FCEE9DFE0FD5F0E9E4CEFD22EDAC
:10086F00F8F5F0EE8420D21CFEADF075F008EF2FF6
:10087F00FFED33FD4007985006D5F0F222C398FDE7
:05088F000FD5F0EA2284
:1008A000020920E493A3F8E493A34003F68001F245
:1008B00008DFF48029E493A3F85407240CC8C33359
:1008C000C4540F4420C8834004F456800146F6DF28
:1008D000E4800B0102040810204080900B5DE47E50
:1008E000019360BCA3FF543F30E509541FFEE4931D
:1008F000A360010ECF54C025E060A840B8E493A3E4
:10090000FAE493A3F8E493A3C8C582C8CAC583CA0E
:10091000F0A3C8C582C8CAC583CADFE9DEE780BEC6
:010B6600008E
:00000001FF
