:10099700120A5C7508007509027FE87E03120A4295
:1009A700750E04AB09AA087D017F011209BF05096D
:0809B700E50970E5050880E187
:100A4200E4FDFCC3ED9FEC9E500F79027BEFDBFED1
:090A5200D9FC0DBD00010C80EA85
:010A5B002278
:040A9F007FF7DFFE00
:010AA3002230
:060A7000C2A58F80D2A791
:080A76007F027EEFDEFEDFFCD3
:010A7E002255
:0A0A8B00C2A6120A70C2A7020A7682
:100A0600CFCDCFCECCCE12083F7C007D0A12083F58
:040A1600ED2430FF9C
:0A0A1A00D2A6120A70C2A7020A76E3
:100A2400AE07EEFB7A0064017004ED148009EB64F8
:0E0A3400024A7009ED243F4480FF120A8B2213
:100A5C007F38120A8B7F0C120A8B7F06120A8B7F4F
:040A6C0001020A8BEE
:0A0A9500AC03120A24AF04020A1A8F
:0609E3008B248A25892601
:1009E900120A24E4FDAB24AA25A9268D8275830069
:0C09F900120800FF6006120A1A0D80E9C7
:010A050022CE
:0A096600EF24FFFDEE34FFFC7F0AD2
:080970008E0F8F108C118D1207
:100978007F017E00E4FBEBC39512E5116480F874F7
:0E0988008098500AAC0FAD1012082D0B80E8BD
:01099600223E
:0409BF008A0C8B0D06
:1009C300120A24AA0EEAFF7E00D394007480948056
:0F09D300400D120966AC0CAD0D120A061A80E633
:0109E20022F2
:0408DF008B828A83FB
:1008E300120A24C3E58364809480400D7F2B120A8F
:1008F3001A85831885821980107F2D120A1AC3E482
:100903009582F519E49583F518AA17EAFF7E00D3BB
:10091300940074809480400D120966AC18AD1912CE
:050923000A061A80E63F
:0109280022AC
:040894008A1C8B1D12
:10089800120A24AA1EEAD39400748094804037EA8E
:1008A80024FFFDE434FFFC7F107E00120970AC1CAD
:1008B800AD1DCFCDCFCECCCE12083FEF540FFEC327
:1008C800940A74809480EE5004243080022437FF08
:0608D800120A1A1A80BF8B
:0108DE0022F7
:040929008A218B2272
:10092D00120A24AA23EAFF7E00D3940074809480D7
:10093D004026EF24FFFDEE34FFFC7F02120970AC60
:10094D0021AD22CFCDCFCECCCE12083FEF54012416
:08095D0030FF120A1A1A80CDC6
:01096500226F
:03000000020A7F72
:0C0A7F00787FE4F6D8FD75812602099707
:10080000BB010CE58229F582E5833AF583E02250AD
:1008100006E92582F8E622BBFE06E92582F8E222F7
:0D082000E58229F582E5833AF583E4932211
:10082D00EF8DF0A4A8F0CF8CF0A428CE8DF0A42EDF
:02083D00FE2299
:10083F00BC000BBE0029EF8DF084FFADF022E4CC9D
:10084F00F875F008EF2FFFEE33FEEC33FCEE9DEC66
:10085F00984005FCEE9DFE0FD5F0E9E4CEFD22EDAC
:10086F00F8F5F0EE8420D21CFEADF075F008EF2FF6
:10087F00FFED33FD4007985006D5F0F222C398FDE7
:05088F000FD5F0EA2284
:00000001FF
