:100966001408003F0006005B004F0066006D007D26
:060976000007007F006F86
:10094C00E4FDFCC3ED9FEC9E500F79027BEFDBFEC8
:09095C00D9FC0DBD00010C80EA7C
:01096500226F
:04097D007FF7DFFE23
:010981002253
:10088C00EE705BEF14B4080050549008A475F0039C
:10089C00A4C58325F0C583730208BC0208C00208F6
:1008AC00C40208C80208CC0208D40208DC0208E41E
:1008BC00D2A4800ED2A48012D2A48016D2A4801A04
:1008CC00C2A4D2A3D2A28016C2A4D2A3C2A2800E6A
:1008DC00C2A4C2A3D2A28006C2A4C2A3C2A2ED2506
:0F08EC00E02408F808E6F5807F017E0002094C41
:1008FB00E4F51CF51DE51D640A451C7004F51CF59B
:10090B001DE4FDFC7F05FE12088CE4FDFC7F06FE5A
:10091B0012088C7580807F017E0012094CE4FDFC6F
:10092B007F0712088CAD1DAC1C7F087E0012088C53
:10093B007FE87E0312094C051DE51D70B8051C8070
:01094B00B4F7
:03000000020800F3
:0C080000787FE4F6D8FD75811D020847E2
:10080C000208FBE493A3F8E493A34003F68001F2FF
:10081C0008DFF48029E493A3F85407240CC8C333ED
:10082C00C4540F4420C8834004F456800146F6DFBC
:10083C00E4800B0102040810204080900966E47EDD
:10084C00019360BCA3FF543F30E509541FFEE493B1
:10085C00A360010ECF54C025E060A840B8E493A378
:10086C00FAE493A3F8E493A3C8C582C8CAC583CAA3
:10087C00F0A3C8C582C8CAC583CADFE9DEE780BE5B
:01097C00007A
:00000001FF
