:0B122D00543A0054483A00544C3A0078
:100C5F001212071211E412118B7BFF7A12792D7D7C
:100C6F00017F011210467BFF7A1279307D017F02DE
:100C7F001210467BFF7A1279347D097F02121046DB
:100C8F00E4FF120FEA8F0A7F01120FEA8F0BE50ABA
:100C9F00D3947D5010C3EF94CE7480947F4006E5BB
:100CAF000A950B5006750A14E4F50B1212077FE82C
:100CBF007E0312113F1212708F14120F808F0F8E3E
:100CCF000E8D0D8C0C8F138E128D118C10E4FFFE78
:100CDF00FDFCAB0FAA0EA90DA80C1209A6501E7B86
:100CEF002D7D037F0112124DAF0FAE0EAD0DAC0C6B
:100CFF00120A1F8F0F8E0E8D0D8C0C80097B2B7D92
:100D0F00037F0112124DAF0FAE0EAD0DAC0C120AD8
:100D1F006EAB07AA067519037D047F011211067BBE
:100D2F002E7D077F0112124D7F007E407D1C7C4679
:100D3F00AB0FAA0EA90DA80C120800120A6EE47BC5
:100D4F00107A27F9F8120BBF7519047D087F01126D
:100D5F001106E514601AB40102050AE514B4020283
:100D6F00150AE514B40302050BE514B40402150BC0
:100D7F00E50AFB7A007519037D047F02120E9CE5CC
:100D8F000BFB7A007519037D0C7F02120E9CAD0AC6
:100D9F00E4FF1210697F057E0012113FAD0B7F013A
:100DAF001210697F057E0012113FAC0AE4120A3A55
:100DBF00AB0FAA0EA90DA80C1209A6601640147B42
:100DCF00487D107F0112124D7D0A7C007FE87E0363
:100DDF0012108BAC0AE4120A3AAB0FAA0EA90DA897
:100DEF000C1209A650097B207D107F0112124DAC09
:100DFF000BE4120A3AAB0FAA0EA90DA80C1209A602
:100E0F0050147B4C7D107F0112124D7D0A7C007FA8
:100E1F00E87E0312108BAC0BE4120A3AAB0FAA0E4A
:100E2F00A90DA80C1209A660025003020CBA7B2070
:0A0E3F007D107F0112124D020CBA63
:03000B00020E4999
:100E4900C0E0C0F0C083C082C0D075D000C000C06F
:0D0E590001C002C003C004C005C006C007F0
:100E6600758A66758CFC0509E50970020508641427
:0B0E760045087007F508F509120F0F82
:100E8100D007D006D005D004D003D002D001D000C5
:0B0E9100D0D0D082D083D0F0D0E0326F
:10113F00E4FDFCC3ED9FEC9E500F79027BEFDBFECD
:09114F00D9FC0DBD00010C80EA81
:011158002274
:0B123800EF1FAC0670011E4C70F62288
:0611F800C2A58F80D2A702
:0811FE007F027EEFDEFEDFFC44
:0112060022C5
:0A124300C2A61211F8C2A70211FEA4
:1010AC00CFCDCFCECCCE120B2E7C007D0A120B2EC8
:0410BC00ED2430FFF0
:0A10C000D2A61211F8C2A70211FE19
:1011A200AE07BE0104ED148006BE0209ED243F44E1
:0611B20080FF121243222F
:1011E4007F381212437F0C1212437F061212437F80
:0411F400010212439F
:0A124D00AC031211A2AF040210C09E
:061046008B158A168917C4
:10104C001211A2E4FDAB15AA16A9178D82758300A7
:0C105C00120AEFFF60061210C00D80E9C0
:011068002265
:0C0FB7007F0AEA24FFFDE434FFFC7E000A
:080FC3008E1C8F1D8C1E8D1F7A
:100FCB007F017E00E4FBEBC3951FE51E6480F87484
:0E0FDB008098500AAC1CAD1D120B1C0B80E858
:010FE90022E5
:041106008A178B18A1
:10110A001211A2AA19EAD39400400D120FB7AC1714
:08111A00AD181210AC1A80EDB3
:0111220022AA
:100E9C001211A2C3EA64809480400B7F2B1210C005
:100EAC008A1A8B1B800E7F2D1210C0C3E49BF51B7E
:100EBC00E49AF51AAA19EAD39400400D120FB7ACB4
:090ECC001AAD1B1210AC1A80EDE6
:010ED50022FA
:040ED6008A228B23BE
:100EDA001211A2AA24EAD3940040297F10120FB952
:100EEA00AC22AD23CFCDCFCECCCE120B2EEF540FEA
:100EFA00FEC3940AEE5004243080022437FF1210F5
:040F0A00C01A80D1B8
:010F0E0022C0
:040F48008A278B2841
:100F4C001211A2AA29EAD394004028EA24FFFDE456
:100F5C0034FFFC7F027E00120FC3AC27AD28CFCD2F
:100F6C00CFCECCCE120B2EEF54012430FF1210C07A
:030F7C001A80D206
:010F7F00224F
:1010CA00C2AFD2B7C2B77FF7DFFED2B77F20DFFE4B
:0D10DA00A2B7E433FE7FF7DFFED2AFAF0612
:0110E70022E6
:1011B800C2AFC2B77E04DEFEEF24FF92B77E18DE10
:0511C800FED2B7D2AF1A
:0111CD0022FF
:10112300C2AFC2B77F02DFFED2B77F02DFFEA2B734
:0B113300E433FE7F18DFFED2AFAF06F2
:01113E00228E
:02115900AD07E0
:10115B00E4FC7401A804088002C333D8FC5DFF12C1
:06116B0011B80CBC08ECF9
:01117100225B
:10117200E4FDFC121123EFA804088002C333D8FC5B
:0811820042050CBC08EDAF05AD
:01118A002242
:0D1207001210CA7FCC1211597F44021159F8
:100F8000E4F515FFFDFCFBFAF9F81210CA7FCC124C
:100F900011597FBE1211591211728F15121172EF71
:100FA000AD15FCE515AE04FFEC120A35E4FBFA7949
:060FB000807841120909DE
:010FB6002218
:101069008F158D161212577FA012101D121214AF70
:101079001512101D121214AF1612101D121214029D
:021089001269EA
:020FEA008F1561
:100FEC00E4F5161212577FA012101D121214AF1531
:100FFC0012101D1212141212577FA112101D121270
:10100C00141210E88F167F01121260121269AF16BB
:01101C0022B1
:09125700D2A1D2A0C2A0C2A122C2
:07126900C2A0D2A1D2A02215
:02101D00AD071D
:10101F00E4FB74807E00A803088006CEA2E713CEFF
:10102F0013D8F8FFEDF582EF558224FF92A0D2A1DD
:06103F00C2A10BBB08DC9E
:011045002288
:1010E800E4FFFED2A0D2A130A00D7480A80608802B
:0D10F80002C313D8FC4207C2A10EBE08E8D7
:0111050022C7
:09126000EF1392A0D2A1C2A12259
:0C121400E4FFD2A0D2A130A0010FC2A1C3
:0112200022AB
:10108B008E158F168C178D18E5161516AE1570026A
:10109B0015154E600BB2A5AF18AE1712123880E8BB
:0110AB002222
:1011CE00E4FF20B1010F20B0027F0220B2027F03A4
:0511DE0020B3027F04B4
:0111E30022E9
:100F0F00852B2A1211CE8F2BE52AB40107E52B7002
:100F1F0003752C01E52AB40207E52B7003752C022B
:100F2F00E52AB40307E52B7003752C03E52AB404F7
:080F3F0007E52B7003752C047B
:010F47002287
:05127000E4AF2CF52C99
:011275002256
:10118B005389F0438901758A66758CFCC28DD28CAC
:07119B00D2A9D2AFC2B922B4
:10080000EC4D6011E8497017ED33EC3304600DE4F2
:10081000FCFFFEFD22E933E8330470F8020ADA1225
:100820000AA558046009E4CC248150062850090226
:100830000AE4284003020AE1C0E0EB4A7044B980B0
:1008400006D0E0FB020AD0EF4E701CBD8008EBFF23
:10085000EAFEE9FD80EBE98DF0A4FEE5F00208E98F
:10086000E9CDF9EAFEEBFFEF89F0A4FCE5F0CE89D3
:10087000F0A42EFFE435F0CD89F0A42DFEE435F090
:100880008067EF4E7005BD80D780C3EF8BF0A4ACBE
:10089000F0EE8BF0A42CFCE435F0F8EF8AF0A42CF9
:1008A000E5F038FCE433CB8DF0A42CFCE5F03BF80C
:1008B000EE8AF0A42CFCE5F038F8E433CF89F0A4FC
:1008C0002CFCE5F038CF3400CE89F0A42FFFE5F002
:1008D0003EFEE433C98DF0A42EFEE5F039CD8AF05A
:1008E000A42FFFE5F03EFEE43DFD33D0E0FB5007D2
:1008F0000BBB000F020AE4EC2CFCEF33FFEE33FEDF
:06090000ED33FD020ABC0C
:10090600020AE4EC5D046005E859047003020ADAA1
:10091600120AA5580460F6EC4860F2EC7004FDFE7D
:10092600FF22C860DB2481C85009C39860025006C4
:10093600020AE19850CAF582E9294B4A7005AB8252
:10094600020AD075F0007C1A7880C3EF9BEE9AED10
:1009560099400DC3EF9BFFEE9AFEED99FDE842F03C
:10096600DC23ACF0D0E0FFD0E0FED0E0FDAB82208F
:10097600E7101BEB60BAEC2CFCEF33FFEE33FEED19
:1009860033FD020ABCE803F830E705C0F075F00055
:10099600EF2FFFEE33FEED33FD40B830E7C280AAFD
:1009A60074F8CC6480CCC86480C8F58204604FC3F8
:1009B600EB9FF5F0EA9E42F0E99D42F0E89C45F097
:1009C600603C501DE5825FFFE582D313CB5BCBF421
:1009D6002B5582FB50280ABA002409B9002008804A
:1009E6001DE5825BFBE582D313CF5FCFF4C3132FE4
:1009F6005582FF50090EBE00050DBD00010CC3EB6C
:100A06009FF5F0EA9E42F0E99D42F0E89C45F060D1
:090A160007CC4820E701B3EC22F3
:100A1F00ED33EC33600A047003BD8004ECB2E7FCE5
:010A2F0022A4
:100A300075F020800E75F010800575F0087D007E41
:100A4000007F003392D530D503120C51EC334010A7
:100A5000EF33FFEE33FEED33FDEC33FCD5F0ED224A
:0E0A6000E5F0247EA2D513CC92E7CDCEFF2286
:100A6E00EDD2E7CD33EC3392D524814006E4FFFE80
:100A7E00FDFC22FCE4CFCECDCC24E0501174FF80DF
:100A8E00EDC3CC13CCCD13CDCE13CECF13CF04707C
:070A9E00F030D5DE020C511F
:100AA500E9D2E7C933E833F892D5EDD2E7CD33EC97
:070AB50033FC5002B2D52210
:100ABC00EC30E7100FBF000C0EBE00080DBD00049B
:100ACC000BEB6014A2D5EB13FCED92E7FD2274FF47
:100ADC00FCFDFEFF22E480F8A2D574FF13FC7D80A0
:030AEC00E480EFB4
:03000000021221C8
:0C122100787FE4F6D8FD75812C020C5F8C
:100AEF00BB010CE58229F582E5833AF583E02250BC
:100AFF0006E92582F8E622BBFE06E92582F8E22206
:0D0B0F00E58229F582E5833AF583E493221F
:100B1C00EF8DF0A4A8F0CF8CF0A428CE8DF0A42EED
:020B2C00FE22A7
:100B2E00BC000BBE0029EF8DF084FFADF022E4CCAB
:100B3E00F875F008EF2FFFEE33FEEC33FCEE9DEC74
:100B4E00984005FCEE9DFE0FD5F0E9E4CEFD22EDBA
:100B5E00F8F5F0EE8420D21CFEADF075F008EF2F04
:100B6E00FFED33FD4007985006D5F0F222C398FDF5
:050B7E000FD5F0EA2292
:100B830075F008758200EF2FFFEE33FECD33CDCC29
:100B930033CCC58233C5829BED9AEC99E5829840AC
:100BA3000CF582EE9BFEED9AFDEC99FC0FD5F0D689
:100BB300E4CEFBE4CDFAE4CCF9A88222B800C1B9B3
:100BC3000059BA002DEC8BF084CFCECDFCE5F0CBF1
:100BD300F97818EF2FFFEE33FEED33FDEC33FCEB2A
:100BE30033FB10D703994004EB99FB0FD8E5E4F9E5
:100BF300FA227818EF2FFFEE33FEED33FDEC33FCD2
:100C0300C933C910D7059BE99A4007EC9BFCE99AC5
:100C1300F90FD8E0E4C9FAE4CCFB2275F010EF2F0A
:100C2300FFEE33FEED33FDCC33CCC833C810D7070A
:100C33009BEC9AE899400AED9BFDEC9AFCE899F845
:0E0C43000FD5F0DAE4CDFBE4CCFAE4C8F922D8
:0E0C5100C3E49FFFE49EFEE49DFDE49CFC22B4
:00000001FF
