:10080000120B95120BEF8F25E525B401036323FF2F
:10081000E525B40207E4F521F522F524E525640376
:1008200070337D01FC7F64FE120B06AD227F011246
:100830000AE47F057E00120B62AD217F02120AE4FA
:100840007F057E00120B62AD247F03120AE47F0550
:100850007E00120B62E525B404157F01120A618F38
:10086000227F02120A618F217F03120A618F24E521
:100870002275F00A84FD7F01120BE1E52275F00A72
:1008800084ADF07F02120BE17D0B7F03120BE1E5DB
:100890002175F00A84FD7F04120BE1E52175F00A51
:1008A00084ADF07F05120BE17D0B7F06120BE1E5B5
:1008B0002475F00A84FD7F07120BE1E52475F00A28
:0B08C00084ADF07F08120BE10208037A
:100ABD00E52360220524E524C394644019E4F5245C
:100ACD000521E5219464400EE4F5210522E52294EB
:070ADD003C4003E4F5222276
:03000B0002095790
:10095700C0E0C0F0C083C082C0D075D000C000C066
:0D09670001C002C003C004C005C006C007E7
:10097400758A66758CFC051EE51EC3941440061228
:100984000A28751E00051FE51FC394024006120BBA
:100994007C751F000520E520C3940A4006752000DD
:0309A400120ABD77
:1009A700D007D006D005D004D003D002D001D000A4
:0B09B700D0D0D082D083D0F0D0E0324E
:100B6200E4FDFCC3ED9FEC9E500F79027BEFDBFEB0
:090B7200D9FC0DBD00010C80EA64
:010B7B002257
:040BF5007FF7DFFEA9
:010BF90022D9
:100B95005389F0438901758A66758CFCC28DD28CA8
:070BA500D2A9D2AFC2B922B0
:100B45000C123F065B4F666D7D077F6F00400909FC
:0C0B5500000A0A0A0A0A0A0A0A0108013A
:070BE10074092FF8A605229C
:1009C200E4F580EF14B4080050549009DA75F0038E
:1009D200A4C58325F0C583730209F20209F6020950
:1009E200FA0209FE020A02020A0A020A12020A1A9A
:1009F200D2A4800ED2A48012D2A48016D2A4801ACD
:100A0200C2A4D2A3D2A28016C2A4D2A3C2A2800E32
:100A1200C2A4C2A3D2A28006C2A4C2A3C2A274125A
:060A22002DF8E6F580222C
:100B7C0074092508F8E6FDAF081209C20508E50856
:080B8C00D39408400375080131
:010B9400223E
:100BAC00E4FF20B1010F20B0027F0220B2027F03CC
:050BBC0020B3027F04DC
:010BC1002211
:100A2800852B2A120BAC8F2BE52AB40107E52B7016
:100A380003752C01E52AB40207E52B7003752C0217
:100A4800E52AB40307E52B7003752C03E52AB404E3
:080A580007E52B7003752C0467
:010A60002273
:050BEF00E4AF2CF52C21
:010BF40022DE
:100AE4008F268D27120BCF7FA0120A94120BC2AF50
:100AF40026120A94120BC2AF27120A94120BC202D6
:020B04000BE8FC
:020A61008F26DE
:100A6300E4F527120BCF7FA0120A94120BC2AF2614
:100A7300120A94120BC2120BCF7FA1120A94120B0B
:100A8300C2120B278F277F01120BD8120BE8AF2757
:010A93002240
:090BCF00D2A1D2A0C2A0C2A12251
:070BE800C2A0D2A1D2A0229D
:020A9400AD07AC
:100A9600E4FB74807E00A803088006CEA2E713CE8E
:100AA60013D8F8FFEDF582EF558224FF92A0D2A16C
:060AB600C2A10BBB08DC2D
:010ABC002217
:100B2700E4FFFED2A0D2A130A00D7480A8060880F1
:0D0B370002C313D8FC4207C2A10EBE08E89D
:010B4400228E
:090BD800EF1392A0D2A1C2A122E8
:0C0BC200E4FFD2A0D2A130A0010FC2A11C
:010BCE002204
:100B06008E268F278C288D29E5271527AE2670027D
:100B160015264E600BB2A5AF29AE28120B6280E8EF
:010B260022AC
:030000000208CB28
:0C08CB00787FE4F6D8FD75812C0209123C
:1008D700020800E493A3F8E493A34003F68001F22F
:1008E70008DFF48029E493A3F85407240CC8C33322
:1008F700C4540F4420C8834004F456800146F6DFF1
:10090700E4800B0102040810204080900B45E47E30
:10091700019360BCA3FF543F30E509541FFEE493E5
:10092700A360010ECF54C025E060A840B8E493A3AC
:10093700FAE493A3F8E493A3C8C582C8CAC583CAD7
:10094700F0A3C8C582C8CAC583CADFE9DEE780BE8F
:010B61000093
:00000001FF
