:10080000E4F519F522120AE8E4FF1209CD8F19E583
:1008100019B40112E52270047F0180027F008F224B
:100820007D0A7C008014E519B40216120B03E4F56E
:1008300022F52BF52AF5297D0AFC7FE87E03120AB2
:10084000A9E5226005120B0B8003120B03E5287546
:10085000F00A842408F8E6F51AE52875F00A84748D
:100860000825F0F8E6F51BE52B75F00A842408F856
:10087000E6F51DE52B75F00A84740825F0F8E6F519
:100880001E751C40E52A75F00A842408F8E6F52058
:10089000E52A75F00A84740825F0F8E6F521751F3D
:0F08A000407B007A00791A7D011208AF02080828
:100AA9008E238F248C258D26E5241524AE237002F0
:100AB90015234E600BB2A5AF26AE25120AF880E8C1
:010AC900220A
:030A8600012C013F
:1009CD00EF6003752C01E52C6401702E30B10930F8
:1009DD00B00630B20320B3227FE87E03120AF8E49A
:1009ED00F52C20B1037F012220B0037F022220B21B
:1009FD00037F032220B3127F042230B10C30B009E3
:0B0A0D0030B20630B303752C017F00EF
:010A180022BB
:0B0AF800EF1FAC0670011E4C70F622D0
:100ACA00D3EF9400EE940040147D6E7C00ED1D700F
:0D0ADA00011CED4C70F7EF1F70E61E80E36D
:010AE70022EC
:100A890011083F065B4F666D7D077F6F777C395E86
:030A990079710070
:0608AF008B238A24892539
:1008B500E4F526ED14F527F526E526C39408507BC7
:1008C500E526B40800504D9008D3F828287302088F
:1008D500EB0208EF0208F30208F70208FB0209031E
:1008E50002090B020913D2A4800ED2A48012D2A44D
:1008F5008016D2A4801AC2A4D2A3D2A28016C2A402
:10090500D2A3C2A2800EC2A4C2A3D2A28006C2A450
:10091500C2A3C2A2C3E5269527FFE49400AB23AA90
:1009250024A9258F82F583120A59F5807F647E00FC
:0B093500120AF8E4F58005260208BE57
:010940002294
:0C0A9C00012900012A00012B00012800A4
:100AE800438901758CDCE4F58AD2A9D2AFC28C2285
:030B0B00D28C2267
:080B0300C28CE4F58CF58A2296
:03000B00020A19CD
:100A1900C0E0C0D0758CDC758A000529E5296464BD
:100A29007029F529052AE52AB43C20752A00052BE9
:100A3900E52BB43C16752B000528E528B4180C7570
:100A49002900752A00752B00752800D0D0D0E03216
:03000000020941B1
:0C094100787FE4F6D8FD75812C0209884F
:100A5900BB010CE58229F582E5833AF583E0225052
:100A690006E92582F8E622BBFE06E92582F8E2229C
:0D0A7900E58229F582E5833AF583E49322B6
:10094D00020800E493A3F8E493A34003F68001F2B8
:10095D0008DFF48029E493A3F85407240CC8C333AB
:10096D00C4540F4420C8834004F456800146F6DF7A
:10097D00E4800B0102040810204080900A86E47E7A
:10098D00019360BCA3FF543F30E509541FFEE4936F
:10099D00A360010ECF54C025E060A840B8E493A336
:1009AD00FAE493A3F8E493A3C8C582C8CAC583CA61
:1009BD00F0A3C8C582C8CAC583CADFE9DEE780BE19
:010AA800004D
:00000001FF
