:100C0400456E74657220796F75722050494E2E00BE
:100AEF00E4F508F509120BF07BFF7A0C79047D0110
:100AFF007F01120B771208007508008F09E5094571
:100B0F000860F2750E02AB09AA087D017F02120B75
:030B1F005380E21E
:100BD600E4FDFCC3ED9FEC9E500F79027BEFDBFE3C
:090BE600D9FC0DBD00010C80EAF0
:010BEF0022E3
:040C43007FF7DFFE5A
:010C4700228A
:060C1400C2A58F80D2A7EB
:080C1A007F027EEFDEFEDFFC2D
:010C220022AF
:0A0C2F00C2A6120C14C2A7020C1A90
:100B9A00CFCDCFCECCCE1209C87C007D0A1209C8AF
:040BAA00ED2430FF07
:0A0BAE00D2A6120C14C2A7020C1A02
:100BB800AE07EEFB7A0064017004ED148009EB6463
:0E0BC800024A7009ED243F4480FF120C2F22D8
:100BF0007F38120C2F7F0C120C2F7F06120C2F7FC8
:040C000001020C2FB2
:0A0C3900AC03120BB8AF04020BAEBF
:060B77008B0A8A0B890CB9
:100B7D00120BB8E4FDAB0AAA0BA90C8D827583008C
:0C0B8D00120989FF6006120BAE0D80E912
:010B99002239
:0A0B2200EF24FFFDEE34FFFC7F0A14
:080B2C008E0F8F108C118D1249
:100B34007F017E00E4FBEBC39512E5116480F87439
:0E0B44008098500AAC0FAD101209B60B80E875
:010B52002280
:040B53008A0C8B0D70
:100B5700120BB8AA0EEAFF7E00D39400748094802B
:0F0B6700400D120B22AC0CAD0D120B9A1A80E64A
:010B7600225C
:040A68008B828A8370
:100A6C00120BB8C3E58364809480400D7F2B120B6E
:100A7C00AE85831885821980107F2D120BAEC3E4CE
:100A8C009582F519E49583F518AA17EAFF7E00D331
:100A9C00940074809480400D120B22AC18AD191286
:050AAC000B9A1A80E620
:010AB1002222
:040A1D008A1C8B1D87
:100A2100120BB8AA1EEAD39400748094804037EA6E
:100A310024FFFDE434FFFC7F107E00120B2CAC1C64
:100A4100AD1DCFCDCFCECCCE1209C8EF540FFEC312
:100A5100940A74809480EE5004243080022437FF7D
:060A6100120BAE1A80BF6B
:010A6700226C
:040AB2008A218B22E8
:100AB600120BB8AA23EAFF7E00D3940074809480B8
:100AC6004026EF24FFFDEE34FFFC7F02120B2CAC18
:100AD60021AD22CFCDCFCECCCE1209C8EF54012402
:080AE60030FF120BAE1A80CDA7
:010AEE0022E5
:10080000E4F50A7590FFC2932097137F14FE120B34
:10081000D63097FD7F147E00120BD6750A01209604
:10082000147F147E00120BD63096FD7F147E0012CA
:100830000BD6750A052095147F147E00120BD63056
:1008400095FD7F147E00120BD6750A092094147F43
:10085000147E00120BD63094FD7F147E00120BD64E
:10086000750A0D7590FFC2922097147F147E0012B6
:100870000BD63097FD7F147E00120BD6750A02202E
:1008800096147F147E00120BD63096FD7F147E00E6
:10089000120BD6750A062095147F147E00120BD613
:1008A0003095FD7F147E00120BD6750A0A20941431
:1008B0007F147E00120BD63094FD7F147E00120B45
:1008C000D6750A0E7590FFC2912097147F147E0092
:1008D000120BD63097FD7F147E00120BD6750A03DB
:1008E0002096147F147E00120BD63096FD7F147E66
:1008F00000120BD6750A072095147F147E00120B88
:10090000D63095FD7F147E00120BD6750A0B20940D
:10091000147F147E00120BD63094FD7F147E0012DB
:100920000BD6750A0F7590FFC2902097147F147E26
:1009300000120BD63097FD7F147E00120BD6750A7D
:10094000042096147F147E00120BD63096FD7F147F
:100950007E00120BD6750A082095147F147E0012B3
:100960000BD63095FD7F147E00120BD6750A0C2035
:1009700094147F147E00120BD63094FD7F147E00F9
:08098000120BD6750A10AF0A34
:01098800224C
:03000000020C23CC
:0C0C2300787FE4F6D8FD758123020AEF0B
:10098900BB010CE58229F582E5833AF583E0225023
:1009990006E92582F8E622BBFE06E92582F8E2226D
:0D09A900E58229F582E5833AF583E4932287
:1009B600EF8DF0A4A8F0CF8CF0A428CE8DF0A42E55
:0209C600FE220F
:1009C800BC000BBE0029EF8DF084FFADF022E4CC13
:1009D800F875F008EF2FFFEE33FEEC33FCEE9DECDC
:1009E800984005FCEE9DFE0FD5F0E9E4CEFD22ED22
:1009F800F8F5F0EE8420D21CFEADF075F008EF2F6C
:100A0800FFED33FD4007985006D5F0F222C398FD5C
:050A18000FD5F0EA22F9
:00000001FF
