:100916007D017F0612088CE4FD7F0712088CE4FD3A
:070926007F0812088C80E934
:1008FC00E4FDFCC3ED9FEC9E500F79027BEFDBFE19
:09090C00D9FC0DBD00010C80EACC
:0109150022BF
:04093A007FF7DFFE66
:01093E002296
:0C092D000A083F065B4F666D7D077F6F78
:10088C00EF14B4080050549008A175F003A4C5836C
:10089C0025F0C583730208B90208BD0208C102081D
:1008AC00C50208C90208D10208D90208E1D2A48005
:1008BC000ED2A48012D2A48016D2A4801AC2A4D2C2
:1008CC00A3D2A28016C2A4D2A3C2A2800EC2A4C27A
:1008DC00A3D2A28006C2A4C2A3C2A274082DF8E6B9
:1008EC00F5807F017E001208FCC2A4C2A3C2A22222
:03000000020800F3
:0C080000787FE4F6D8FD758111020847EE
:10080C00020916E493A3F8E493A34003F68001F2E3
:10081C0008DFF48029E493A3F85407240CC8C333ED
:10082C00C4540F4420C8834004F456800146F6DFBC
:10083C00E4800B010204081020408090092DE47E16
:10084C00019360BCA3FF543F30E509541FFEE493B1
:10085C00A360010ECF54C025E060A840B8E493A378
:10086C00FAE493A3F8E493A3C8C582C8CAC583CAA3
:10087C00F0A3C8C582C8CAC583CADFE9DEE780BE5B
:0109390000BD
:00000001FF
