:02083D00AD0705
:10083F00E4FB74807E00A803088006CEA2E713CEE7
:10084F0013D8F8FFEDF582EF558224FF92B4D2B69C
:0A085F00C2B60BBB08DCD2B5C2B56F
:01086900226C
:10086A00AE05AC07AF0612083DAF047480A80708AE
:10087A008002C313D8FCF4F5807F017E0012088E33
:04088A007580FF2254
:10080000C2B6C2B5E4FDFF12086A7D787F01120806
:100810006A7D847F0212086A7D827F0312086A7DE6
:10082000417F0412086A7D827F0512086A7D847FF9
:0D0830000612086A7D787F0712086A80C7EB
:10088E00E4FDFCC3ED9FEC9E500F79027BEFDBFE87
:09089E00D9FC0DBD00010C80EA3B
:0108A700222E
:0408B4007FF7DFFEED
:0108B800221D
:030000000208A84B
:0C08A800787FE4F6D8FD75810702080097
:00000001FF
