:1009BF00E4FDFCC3ED9FEC9E500F79027BEFDBFE55
:0909CF00D9FC0DBD00010C80EA09
:0109D80022FC
:0409FD007FF7DFFEA3
:010A010022D2
:10095A001209D91208F98F15E515640170230514D7
:10096A00531403E5147002F512E514B40103751269
:10097A0032E514B4020375124BE514B4030375127D
:0A098A0064AD147F0112088C80C9CF
:03000B0002099453
:10099400C0E0C0F0C0D0758AA4758CFF0513E513C0
:1009A40075F0648485F013E513D395124004C29066
:0B09B4008002D290D0D0D0F0D0E03212
:1009D9005389F0438901758AA4758CFFC28DD28C25
:0709E900D2A9D2AFC2B9226E
:1008F900E4F51620B1137F14FE1209BF30B1FD7F54
:10090900147E001209BF75160120B0147F147E00F1
:100919001209BF30B0FD7F147E001209BF7516029F
:1009290020B2147F147E001209BF30B2FD7F147EFD
:10093900001209BF75160320B3147F147E00120933
:10094900BF30B3FD7F147E001209BF751604AF16C0
:01095900227B
:0C09F0000A083F065B4F666D7D077F6FB5
:10088C00EF14B4080050549008A175F003A4C5836C
:10089C0025F0C583730208B90208BD0208C102081D
:1008AC00C50208C90208D10208D90208E1D2A48005
:1008BC000ED2A48012D2A48016D2A4801AC2A4D2C2
:1008CC00A3D2A28016C2A4D2A3C2A2800EC2A4C27A
:1008DC00A3D2A28006C2A4C2A3C2A274082DF8E6B9
:0D08EC00F5807F017E001209BFE4F5802237
:03000000020800F3
:0C080000787FE4F6D8FD758116020847E9
:10080C0002095AE493A3F8E493A34003F68001F29F
:10081C0008DFF48029E493A3F85407240CC8C333ED
:10082C00C4540F4420C8834004F456800146F6DFBC
:10083C00E4800B01020408102040809009F0E47E53
:10084C00019360BCA3FF543F30E509541FFEE493B1
:10085C00A360010ECF54C025E060A840B8E493A378
:10086C00FAE493A3F8E493A3C8C582C8CAC583CAA3
:10087C00F0A3C8C582C8CAC583CADFE9DEE780BE5B
:0109FC0000FA
:00000001FF
